:03000000020C8966
:0C0C8900787FE4F6D8FD758164020CD081
:080003008F3C1207E8AF3C221C
:0312B00012080120
:0112B3002218
:100620000A0D202020202020202020204D656E75DE
:10063000205072696E636970616C0A0D000A0D20AA
:1006400030202D205465737420452F53207374611E
:100650006E64617264202873657269652D4C434431
:1006600029000A0D2031202D2054657374206175F6
:100670007472657320666F6E6374696F6E73204C5D
:100680004344000A0D2032202D2054657374206CE1
:100690006563747572652063617074657572732922
:1006A000000A0D2033202D20546573742050574DBF
:1006B000000A0D2034202D2054657374206361706E
:1006C000746575722064697374616E6365000A0DE8
:1006D0002035202D205465737420436F6465757236
:1006E00020696E6372656D656E74616C000A0D2021
:1006F00036202D205465737420466F6E6374696FC5
:100700006E732074656D7073207265656C000A0DE0
:100710002037202D205465737420466F6E637469F2
:100720006F6E7320736572766F5F68657861706F46
:100730006C650A0D000A0D2038202D205465737455
:1007400020457874656E73696F6E730A0D000A0D2B
:1007500020454E5452455220766F7472652063686E
:100760006F6978203A20007465737420736F727417
:100770006965206C6364006368616D70696F6E20E9
:100780003D2025782000676175636865203D202540
:1007900075200064726F697465203D202575200006
:0412AB0041000B00F3
:100D15007F011207B27BFF7A0679201200707BFFF4
:100D25007A06793D1200707BFF7A067962120070AF
:100D35007BFF7A0679831200707BFF7A0679A11210
:100D450000707BFF7A0679B11200707BFF7A067915
:100D5500CE1200707BFF7A0679ED1200707BFF7A68
:100D650007790E1200707BFF7A0779351200707BC8
:100D7500FF7A07794E12007012080190000BEFF010
:100D8500C394305005E0943850EE90000BE024D029
:050D9500900018F0229F
:060D9A008B288A29892A3A
:100DA000E4F52FF52EF5F0120B35AB2BAA2CA92D5F
:100DB000E4F5F0120B351208ACE52E7055E52F70F6
:100DC000517D607F631208F01208DEAB28AA29A9C2
:100DD0002AEE8FF0120B35AB28AA29A92A120B0A8A
:100DE000D39446E5F094054003752E011208E5AB57
:100DF0002BAA2CA92DEE8FF0120B35AB2BAA2CA908
:100E00002D120B0AD394DCE5F0940540AC752F014C
:020E100080A7B9
:010E120022BD
:060E13008B288A29892AC0
:100E1900E4F52FF52EF5F0120B35AB2BAA2CA92DE5
:100E2900E4F5F0120B351208ACE52E7055E52F707C
:100E3900517D607F631208F01208DEAB28AA29A948
:100E49002AEE8FF0120B35AB28AA29A92A120B0A10
:100E5900D394ABE5F094014003752E011208E5AB7C
:100E69002BAA2CA92DEE8FF0120B35AB2BAA2CA98E
:100E79002D120B0AD394C9E5F0940140AC752F01EA
:020E890080A740
:010E8B002244
:060E8C008B3D8A3E893F08
:100E9200E4F544F543F5F0120B35AB40AA41A94203
:100EA200E4F5F0120B351208ACE5437055E54470D9
:100EB200517D607F631208F01208DEAB3DAA3EA9A5
:100EC2003FEE8FF0120B35AB3DAA3EA93F120B0A43
:100ED200D39456E5F0940040037543011208E5AB44
:100EE20040AA41A942EE8FF0120B35AB40AA41A9AC
:100EF20042120B0AD3945CE5F0940040AC754401B5
:020F020080A7C6
:010F040022CA
:060F05008B458A46894776
:100F0B00E4F54CF54BF5F0120B35AB48AA49A94A61
:100F1B00E4F5F0120B351208ACE54B7055E54C704F
:100F2B00517D307F581208F01208DEAB45AA46A956
:100F3B0047EE8FF0120B35AB45AA46A947120B0AA9
:100F4B00D39419E5F094034003754B011208E5ABFC
:100F5B0048AA49A94AEE8FF0120B35AB48AA49A90A
:100F6B004A120B0AD394C2E5F0940140AC754C01C4
:020F7B0080A74D
:010F7D002251
:060F7E008B4D8A4E894FE5
:100F8400E4F554F553F5F0120B35AB50AA51A952C0
:100F9400E4F5F0120B351208ACE5537055E55470C6
:100FA400517D307F581208F01208DEAB4DAA4EA9CD
:100FB4004FEE8FF0120B35AB4DAA4EA94F120B0A10
:100FC400D3948DE5F0940140037553011208E5AB09
:100FD40050AA51A952EE8FF0120B35AB50AA51A969
:100FE40052120B0AD394E6E5F0940040AC75540118
:020FF40080A7D4
:010FF60022D8
:060FF7008B288A29892ADB
:100FFD00E4F52FF52EF5F0120B35AB2BAA2CA92D00
:10100D00E4F5F0120B351208ACE52E7055E52F7096
:10101D00517D587F301208F01208DEAB28AA29A99D
:10102D002AEE8FF0120B35AB28AA29A92A120B0A2A
:10103D00D39490E5F094014003752E011208E5ABB1
:10104D002BAA2CA92DEE8FF0120B35AB2BAA2CA9A8
:10105D002D120B0AD39419E5F0940340AC752F01B2
:02106D0080A75A
:01106F00225E
:061070008B558A568957DA
:10107600E4F55CF55BF5F0120B35AB58AA59A95AA5
:10108600E4F5F0120B351208ACE55B7055E55C70C3
:10109600517D587F251208F01208DEAB55AA56A9D5
:1010A60057EE8FF0120B35AB55AA56A957120B0AFD
:1010B600D39420E5F094034003755B011208E5AB79
:1010C60058AA59A95AEE8FF0120B35AB58AA59A94E
:1010D6005A120B0AD3948BE5F0940640AC755C016A
:0210E60080A7E1
:0110E80022E5
:0610E9008B5D8A5E895F49
:1010EF00E4F564F563F5F0120B35AB60AA61A96204
:1010FF00E4F5F0120B351208ACE5637055E564703A
:10110F00517D587F301208F01208DEAB5DAA5EA940
:10111F005FEE8FF0120B35AB5DAA5EA95F120B0A63
:10112F00D39496E5F0940040037563011208E5AB84
:10113F0060AA61A962EE8FF0120B35AB60AA61A9AC
:10114F0062120B0AD39495E5F0940140AC756401DB
:02115F0080A767
:01116100226B
:100A2D00E4F524F525F526F5277F567E02120BE217
:100A3D007F567E02120C0A7FFF1207A07F0212075B
:100A4D00B27BFF7A077967120070E4900017F07D92
:100A5D0003FF12082412087C8E2B8F2C7BFF7A0744
:100A6D0079771200707F031207B21208ECE4FF12BF
:100A7D0008C11208AC120C20752B00752C00752DB9
:100A8D00267B007A007924120D9AE4FDFF1208F0FE
:100A9D00120907752B00752C00752D267B007A0029
:100AAD007924120FF7E4FDFF1208F0120907752BD8
:100ABD0000752C00752D267B007A007924120E13FB
:100ACD00E4FDFF1208F01209077D01E4FF1208246E
:100ADD007BFF7A07798685242B85252C1200707D66
:100AED0002E4FF1208247BFF7A07799385262B8574
:0D0AFD00272C120070E4FDFF1208F080FEAF
:03000B00020C3CA8
:100BE200C28CC2A95389F0438902758C00758A00B0
:100BF2008F0D8E0E8F0F8E10750C09E520C2E4F555
:100C020020D28CD2AFD2A9228F0D8E0E8F0F8E10D2
:100C1200850F0D85100E22850F0D85100E22E8C05E
:100C2200E078117600087600D0E0F822E8C0E0789B
:100C320011E6FF08E6FED0E0F822C0E0C0D0E8C02E
:100C4200E0C0F07811E62401F608E63400F6D50C8F
:100C520020750C09E50DC39401F50DE50E9400F520
:100C62000E450D700C850F0D85100EE520D2E4F5B2
:100C720020D0F0D0E0F8D0D0D0E032E52010E4036C
:070C8200C38003F520D3221B
:1007A0008FF012127E1203C7752101228FF01212F0
:1007B0007E22EF54035321FC42212212129A500F41
:1007C000E5F0B4130A12129A50FBE5F0B411F68F5B
:1007D000F0E52130E00512129050FBE52130E107F1
:1007E0008FF01204EF50FB228FF0E52130E005126C
:1007F000129050FBE52130E1078FF01204EF50FB1F
:100800002212129A50FBAFF022A29822A29922A2A1
:100810009992E1A29892E0228FF01204EF50FB220D
:100820001203C722ED8FF053F01F12048B22120423
:10083000DB228FF01205DE228EF01205DE8FF01221
:1008400005DE22A29822A2992275F000A29892F0C9
:10085000A29992F1AFF0221211AFAFF0221211B5AE
:10086000AFF0221211BBAFF0221211C1AFF0221271
:1008700011CFAEF0FF228FF01211F1221211E0AE73
:10088000F0FF221209CD221209E4221209CD120929
:10089000E4221209FBAFF022120A01AFF022120A81
:1008A00007AEF0FF22120A1AAEF0FF2212091E2232
:1008B00012093B22120952228FF053F001120969EA
:1008C000228FF053F0031209722212097BAFF0223B
:1008D000120981AEF0FF22120994AEF0FF22120934
:1008E000A7AEF0FF221209BAAEF0FF2212123B228D
:1008F0008FF012125A8DF0121260228FF012125ADB
:10090000228FF012126022121251228FF012126600
:0E091000228FF012126F22EF8DF01211702262
:1011AF00780012121A22780112121A2278021212E1
:1011BF001A22780312121AE5F00303540FF5F022E6
:1011CF00780712121AC0F0780612121AE5F0D0F052
:1011DF0022780512121AC0F0780412121AE5F0D014
:0811EF00F02278061211F7222C
:10036A00C2A0C2A10000D2A200F5800000C2A20071
:10037A00D2A1D2A07580FF22D2A0C2A100D2A2002F
:10038A00F58000C2A200D2A1D2A07580FF2275809A
:10039A00FFC2A0D2A10000D2A20000E58000C2A242
:1003AA0000D2A1D2A0227580FFD2A0D2A10000D291
:1003BA00A200E58000C2A200D2A1D2A022EBC0E036
:1003CA00EAC0E0750800C2A2D2A1007A807B0000D0
:1003DA0000DBFCDAFA743812036A7A407B00000008
:1003EA00DBFCDAFA743812036A7A407B000000DB1D
:1003FA00FCDAFA743812036A7B0012039830E705B4
:10040A0000DBF78036743812036A12039820E7FA81
:10041A00740812036A12039820E7FA740112036A35
:10042A0012039820E7FA740612036A12039820E767
:10043A00FA740E12036A7400D3800374FFC3D0E007
:10044A00AAE0D0E0ABE022120398A2E7B3E492E07C
:10045A0022120398A2E7B322120398F5F0228DF034
:10046A00EFA2E0C0E0C0F0C0D0D2F792F612045B6F
:09047A0050FBE5F012036AD0D03A
:10048300D0F0D0E0228DF0EFC083C082C0E0C0F096
:1004930054039004CD93C5F0B41400502425F0F513
:1004A300F012045B50FBE5F012036AD0F0D0E08554
:1004B300F00853081FC0E0C0F0232354C04508F5DB
:1004C30008D0F0D0E0D082D0832280C094D48FF0C3
:1004D300C0E0C0F0C0D0809CC0E075080012045B8F
:1004E30050FB740112036AD0E0228FF0C0F0C0E029
:1004F30012045B50FBE5F0B40D0F12052F03C45437
:100503000375F00012048B801DB40A1212052FF537
:10051300F053F01F03C404540312048B8008E5F066
:10052300120382120570D3D0E0D0F02212045B5084
:10053300FB120398547FB414005002802FB4280098
:100543005007C3941444408023B440005004748083
:10055300801AB454005007C394404420800EB468FA
:10056300005007C3945444608002748022C0E0C0EA
:10057300F012045B50FB120398547FB4140A740105
:1005830075F00012048B802EB4540A740275F000C7
:1005930012048B8021B4400A740375F00012048B9B
:1005A3008014B42800400FB44000500A740375F05F
:1005B3000012048B8000D0F0D0E0228FF09005CEA3
:0705C300E5F0540F93F5F081
:1005CA001204EF223031323334353637383941426A
:1005DA0043444546C0F0E5F0C4540FF5F01205C097
:1005EA00D0F053F00F1205C022C083C082C0E0C011
:1005FA00F0E8C0E0740093F5F0B4FF02800C784193
:10060A001204EF4002D8F9A380EAD0E0F8D0F0D083
:06061A00E0D082D0832233
:10091E0075F09043F00978201211F775F004D5F0B8
:10092E00FD75F0A043F00A78201211F72275F090B1
:10093E0078201211F775F004D5F0FD75F0A078202F
:10094E001211F72275F00978201211F775F004D5FF
:10095E00F0FD75F00A78201211F72253F00178227B
:10096E001211F72253F00378231211F72278201276
:10097E00121A22EEC0E0782212121AAEF07823126A
:10098E00121AD0E0CE22EEC0E0782A12121AAEF081
:10099E00782B12121AD0E0CE22EEC0E0782412127A
:1009AE001AAEF0782512121AD0E0CE22EEC0E07800
:0F09BE002C12121AAEF0782D12121AD0E0CE229F
:10123B0075F00078121211F778161211F775F099F4
:10124B0078101211F72275F08878101211F72278A6
:10125B00121211F72278161211F72253F00F781C85
:0A126B001211F722781E1211F7226B
:1012750012129A50FB22A2982253890F4389208586
:10128500F08D85F08B759852D28E22A299500585E6
:10129500F099C29922A29850058599F0C2982285A5
:0612A50098F053F0032253
:1009CD0075F09078301211F775F004D5F0FD75F0D3
:1009DD00A078301211F72275F00978301211F775E1
:1009ED00F004D5F0FD75F00A78301211F722783049
:1009FD0012121A22783112121A22EEC0E078321237
:100A0D00121AAEF0783312121AD0E0CE22EEC0E0F8
:100A1D00783612121AAEF0783712121AD0E0CE22B2
:101162007B0C75F04B7840081211F7DBFA227840BD
:1011720028F81211F7227B0C75F0587840081211EA
:10118200F7DBFA7B0C75F0027850081211F7DBFAE4
:1011920022C0E0784028F88582F01211F7D0E0787A
:0D11A2005028F88583F053F0071211F72252
:1011F700888053A0FC43A000C2B60000D2B6008589
:10120700F08053A0FC43A001C2B60000D2B600751F
:1012170080FF22888053A0FC43A000C2B60000D202
:10122700B60053A0FC43A0017580FFC2B7008580BC
:04123700F0D2B72218
:100C9500020A2DE493A3F8E493A34003F68001F23E
:100CA50008DFF48029E493A3F85407240CC8C33360
:100CB500C4540F4420C8834004F456800146F6DF2F
:100CC500E4800B01020408102040809012ABE47E02
:100CD500019360BCA3FF543F30E509541FFEE49324
:100CE500A360010ECF54C025E060A840B8E493A3EB
:100CF500FAE493A3F8E493A3C8C582C8CAC583CA16
:100D0500F0A3C8C582C8CAC583CADFE9DEE780BECD
:0112AF00003E
:100B0A00BB010A89828A83E0F5F0A3E022500687B6
:100B1A00F009E71922BBFE07E3F5F009E319228978
:0B0B2A00828A83E493F5F074019322AB
:100B3500BB010A89828A83F0E5F0A3F0225006F70B
:0F0B450009A7F01922BBFE06F3E5F009F3192208
:10000E00E537242BF8E60537227828301702782BAF
:10001E00E475F001120BAC020B542010EB7F2ED2C4
:10002E00108018EF540F2490D43440D4FF30140BAA
:10003E00EF24BFB41A0050032461FFE538600215A7
:10004E0038053BE53B7002053A30170D7828E4750C
:10005E00F001120BACEF020B9A0200037403D217DD
:10006E008003E4C217F5378B288A29892AE4F538EC
:10007E00F53AF53BE53860077F2012004980F575AB
:10008E0039FFC211C210C212C213C215C216C21853
:10009E00120017FF700D3017057F0012005AAF3B8C
:1000AE00AE3A22B4255FC2D5C214120017FF24D077
:1000BE00B40A00501A75F00A783830D50508B6FF24
:1000CE000106C6A426F620D5047002D21380D924C8
:1000DE00CFB41A00EF5004C2E5D21402025AD21164
:1000EE0080C6D21080C0D21280BCD2D580BAD215B2
:1000FE0080B47F201200492012077401B5380040E9
:10010E00F112000EFF120049020082D218D21680A0
:10011E009512000EFB12000EFA12000EF94A4B70E9
:10012E0006792B7A037BFF20122EE538602A7E009B
:10013E008E82758300120B6D60060EEE653970F0BF
:10014E00C2D5EBC0E0EAC0E0E9C0E0EE1202A1D0F9
:10015E00E0F9D0E0FAD0E0FB120B54FF60AAEBC03E
:10016E00E0EAC0E0E9C0E0120049D0E02401F9D095
:10017E00E03400FAD0E0FBE5390460DCD539D980F3
:10018E00877BFF7A02799DD212809C79108002794A
:10019E0008C216C2188008D2D5790A8004790AC21C
:1001AE00D5E539047002F539E4FAFDFEFF12000EB2
:1001BE00FC7B0820111312000EFD7B1030100A126A
:1001CE00000EFE12000EFF7B20EC3382D592D5502E
:1001DE0013C3E43010069FFFE49EFEE42011039D3E
:1001EE00FDE49CFCE4CBF8C211EC700CCFCECDCC70
:1001FE00E824F8F870F38017C3EF33FFEE33FEED0B
:10020E0033FDEC33FCEB33FB994002FB0FD8E9EBEB
:10021E00301105F8D0E0C448B211C0E00AEC4D4EE2
:10022E004F78207B0070C2EAB5390040BCC0E012A6
:10023E0002A3D0F0D0E0201104C4C0E0C4B211C0BB
:10024E00F0120032D0F0D5F0EB020082120BBC019E
:10025E001F5301995800F04C00EC42019D4F01A52F
:0F026E004401A54901054301AB55018F46018F9E
:10027D0045018F47034B5000F42D00F82E011B2B29
:10028D0000FC2301192003342A00B4480000011397
:10029D003F3F3F00790AA2D5201314301509B9103C
:1002AD00020404B9080104A2D5201602500104204D
:1002BD0012689212B538005034C0E07F2030131907
:1002CD007F30A21272167215500F1202FAC212C2AC
:1002DD0016C215C2187F30800F301503E9C0E01229
:1002ED000049301503D0E0F9D0E0B538CC30151702
:1002FD007F30B9100C1200497F583014077F788079
:10030D0003B908031200493012057F2D0200497F01
:10031D00202018F87F2B2016F322921280CF286E02
:10032D00756C6C2900D21112000E3011F8C21178C3
:10033D003830D50108F60200B42D5043495812004B
:10034D000E2403B405004001E49003469312003AD5
:0D035D00743A12003AD21375380402019967
:100B5400BB010689828A83E0225002E722BBFE029F
:090B6400E32289828A83E49322D2
:100B6D00BB010CE58229F582E5833AF583E022503D
:100B7D0006E92582F8E622BBFE06E92582F8E22287
:0D0B8D00E58229F582E5833AF583E49322A1
:100B9A00BB010689828A83F0225002F722BBFE013A
:020BAA00F32234
:100BAC00FAE6FB0808E6F925F0F618E6CA3AF6224A
:100BBC00D083D082F8E4937012740193700DA3A3C8
:100BCC0093F8740193F5828883E4737402936860DC
:060BDC00EFA3A3A380DFDC
:00000001FF
